:020000040800F2
:1000000000040020450100084D0100084F010008D0
:1000100051010008530100085501000800000000CC
:100020000000000000000000000000005701000870
:1000300059010008000000005B0100085D01000894
:100040005F0100085F0100085F0100085F01000810
:100050005F0100085F0100085F0100085F01000800
:100060005F0100085F0100085F0100085F010008F0
:100070005F0100085F0100085F0100085F010008E0
:100080005F0100085F0100085F0100085F010008D0
:100090005F0100085F0100085F0100085F010008C0
:1000A0005F0100085F0100085F0100085F010008B0
:1000B0005F0100085F0100085F0100085F010008A0
:1000C0005F0100085F0100085F0100085F01000890
:1000D0005F0100085F0100085F0100085F01000880
:1000E0005F0100085F0100085F0100085F01000870
:1000F0005F0100085F0100085F0100085F01000860
:100100005F0100085F0100085F0100085F0100084F
:100110005F0100085F0100085F0100085F0100083F
:100120005F0100085F0100085F0100085F0100082F
:10013000DFF80CD000F018F8004800477D020008F6
:10014000000400200648804706480047FEE7FEE717
:10015000FEE7FEE7FEE7FEE7FEE7FEE7FEE7FEE777
:100160008D01000831010008064C074D06E0E068EB
:1001700040F0010394E8070098471034AC42F6D3EE
:10018000FFF7DAFFA0020008B002000882B036488C
:10019000364A016841F00101016041681140344A6A
:1001A0004160016811400160016821F48021016013
:1001B000416821F4FE0141604FF41F01816000217C
:1001C00001910091016841F480310160016801F4FE
:1001D00000310091019901310191009919B90199FA
:1001E000B1F5A06FF2D10168890301D4002100E0CC
:1001F000012100910099012930D11E490A6842F07D
:1002000010020A600A6822F003020A600A6842F0DB
:1002100002020A604168416041684160416841F4FE
:1002200080614160416821F47C114160416841F482
:10023000E8114160016841F0807101600168890145
:10024000FCD5416821F003014160416841F00201A1
:100250004160416801F00C010829FAD106484FF0CD
:100260000061016002B07047001002400000FFF81A
:10027000FFFFF6FE0020024008ED00E0002070477E
:1002800002E008C8121F08C1002AFAD1704770475F
:10029000002001E001C1121F002AFBD170470000BD
:1002A000B0020008000000200004000090020008D6
:0400000508000131BD
:00000001FF
