:020000040800F2
:1000000040430020050100080D010008CD01000853
:10001000110100081301000815010008000000008C
:1000200000000000000000000000000017010008B0
:100030001901000800000000570100081D01000818
:100040001F0100081F0100081F0100081F01000810
:100050001F0100081F0100081F0100081F01000800
:100060001F0100081F0100081F0100081F010008F0
:100070001F0100081F0100081F0100081F010008E0
:100080001F0100081F0100081F0100081F010008D0
:100090001F0100081F0100081F0100081F010008C0
:1000A0001F0100081F0100081F0100081F010008B0
:1000B0001F0100081F0100081F0100081F010008A0
:1000C0001F0100081F0100081F0100081F01000890
:1000D0001F0100081F0100081F0100081F01000880
:1000E0001F0100081F0100081F010008DFF810D0E1
:1000F00000F094F80048004741020008AFF3008088
:10010000404300200648804706480047FEE7FEE7D8
:10011000FEE7FEE7FEE7FEE7FEE7FEE7FEE7FEE7B7
:1001200021040008ED000008EFF3108072B670475C
:1001300080F310887047324A1368012B04D04FF0C7
:10014000010313602F4A10602F4A11602F484FF0AF
:10015000805101607047EFF3108272B62848016841
:1001600091B14FF0000101602648016829B1EFF319
:10017000098121E9F00F00680160234909680968D5
:10018000B1E8F00F81F3098882F310884EF0040E75
:1001900070471D4908601B494FF00000086018496E
:1001A0004FF0010008601A481A49D0F8002041EACF
:1001B0000201016015484FF0805101601648006847
:1001C000006880F3088861B662B670471EF0040FBD
:1001D0000CBFEFF30880EFF3098020E9F00F40F83F
:1001E00004ED1EF0040F0CBF80F3088880F309882B
:1001F00000B500F062FC5DF804EB4EF0040E7047B1
:1002000018000020100000201400002004ED00E081
:1002100020ED00E00000FFFF08ED00E0064C074D78
:1002200006E0E06840F0010394E8070098471034C6
:10023000AC42F6D3FFF75EFFAC190008CC190008FA
:1002400010B501F0F9FA002010BD4FF48050C4F24F
:100250000200006840F001004FF48051C4F2020136
:1002600008600846006840F4F86008600846406886
:1002700048600846406840F42010486008464068DE
:1002800048600846006840F08070086000BF4FF486
:100290008050C4F20200006800F000700028F6D020
:1002A0004FF48050C4F20200406820F003004FF485
:1002B0008051C4F2020148600846406840F00200E4
:1002C000486000BF4FF48050C4F20200406800F064
:1002D0000C000828F6D14FF48050C4F202004068A8
:1002E00020F440404FF48051C4F2020148600846B7
:1002F000406840F440404860704710B500F001F895
:1003000010BD0CB50020019000904FF48050C4F255
:100310000200006840F480304FF48051C4F20201C2
:10032000086000BF4FF48050C4F20200006800F47F
:10033000003000900198401C0190009818B9019875
:10034000B0F5A06FEED14FF48050C4F20200006807
:1003500000F4003010B10120009001E00020009076
:10036000009801285BD14FF40050C4F202000068ED
:1003700040F010004FF40051C4F20201086008463A
:10038000006820F0030008600846006840F00200A2
:1003900008604FF48050C4F2020040684FF480516E
:1003A000C4F2020148600846406848600846406858
:1003B00040F4806048600846406820F47C10486043
:1003C0000846406840F4E81048600846006840F07D
:1003D0008070086000BF4FF48050C4F202000068D3
:1003E00000F000700028F6D04FF48050C4F20200F4
:1003F000406820F003004FF48051C4F202014860CD
:100400000846406840F00200486000BF4FF480504A
:10041000C4F20200406800F00C000828F6D10CBDC0
:1004200010B54FF48050C4F20200006840F00100A3
:100430004FF48051C4F20201086008464068002170
:10044000CFF6FF0108404FF48051C4F2020148602A
:100450000846006820F4102020F0807008600846EC
:10046000006820F4802008600846406820F4FE0000
:1004700048604FF41F008860FFF73FFF4FF00060B7
:100480004EF60851CEF20001086010BD014609B9D0
:1004900000207047C8B238B1C8B241F66202C0F657
:1004A0000002105C401CF4E701F47F4040B141F6CB
:1004B0006200C0F60000C1F30722805C0930E8E763
:1004C00001F47F0040B141F66200C0F60000C1F3C4
:1004D0000742805C1130DCE741F66200C0F60000A4
:1004E00000EB116000781930D3E702E008C8121F52
:1004F00008C1002AFAD170477047002001E001C10D
:10050000121F002AFBD170472DE9FC5F04468B4681
:1005100015461E46DDE90C9ADDE90E7804F114005B
:100520004060006000BF1C346560A660C4F80C9099
:10053000C4F810A02321D4E9030200F08EFCD4E912
:10054000033C63441A1F41F22543C0F60003D4E97B
:10055000010100F0C8FA2060A77667760020E0610C
:10056000C4F82080C4F82480606120766065A065AE
:100570001C3C0090234641F21F62C0F60002214657
:10058000019004F1440001F0A6F80020BDE8FC9FB2
:100590002DE9F04704460E4617469846DDF82090B0
:1005A00084F80990607A20F001006072E6612762A9
:1005B0000020A062C4F82480002506E004F11401A4
:1005C00001EBC50000F004FB6D1C012DF6DBBDE85E
:1005D000F08770B50546002406E005F1140101EB33
:1005E000C40000F02EFB641C012CF6DB70BD70B55E
:1005F0000446FFF799FD0546206F10B12046216F94
:1006000088472846FFF794FD70BD70B531BB00F0F8
:100610000F04082C23DA041140F20005C2F2000591
:1006200055F8244024680507AE0E0F25B540AC43AD
:10063000051140F20006C2F2000656F825502C6063
:100640000411354655F8244024680507AD0E02FA1A
:1006500005F52C43051156F825502C6026E00411B1
:1006600040F20005C2F2000555F82440646800F02D
:100670000F05083DAE000F25B540AC43051140F213
:100680000006C2F2000656F825506C60041135468B
:1006900055F82440646800F00F05083DAD0002FAEB
:1006A00005F52C43051156F825506C6001296CD1D5
:1006B00000F00F04082C31DA041140F20005C2F2F8
:1006C000000555F8244024680507AE0E0F25B540F7
:1006D000AC43051140F20006C2F2000656F8255060
:1006E0002C600411354655F8244024680507AD0EEA
:1006F00002FA05F52C43051156F825502C6004111B
:10070000354655F8244024680507AD0E03FA05F573
:100710002C43051156F825502C6036E0041140F2A8
:100720000005C2F2000555F82440646800F00F058A
:10073000083DAE000F25B540AC43051140F2000660
:10074000C2F2000656F825506C600411354655F883
:100750002440646800F00F05083DAD0002FA05F57D
:100760002C43051156F825506C600411354655F898
:100770002440646800F00F05083DAD0003FA05F55C
:100780002C43051156F825506C6070BD2DE9F041E1
:1007900004460F4615461E46DDF818804FF480507B
:1007A000C4F202008069022101EB24120121914070
:1007B00008434FF48051C4F2020188614346324637
:1007C00039462046FFF721FF2946204600F002F86F
:1007D000BDE8F08110B5A9B1021140F20003C2F2E8
:1007E000000353F82220D26800F00F040123A34035
:1007F0001A43031140F20004C2F2000454F82330FB
:10080000DA6014E0021140F20003C2F2000353F870
:100810002220D26800F00F040123A3409A43031161
:1008200040F20004C2F2000454F82330DA6010BD34
:1008300008B5FFF70AFD03200023012211460090AE
:100840000820FFF7A3FF03E001210820FFF7C2FF04
:10085000FAE710B5044600F082F8FFF7E9FF10BD93
:1008600030B540F22804C2F2000443682468191924
:10087000884224D04B8813BB40F22C03C2F2000301
:100880001B6899421BD040F23003C2F200031B6880
:100890008B4204D140F23003C2F2000318604B686F
:1008A000436040F22803C2F200031B68C31A40F2FF
:1008B0002805C2F200054C682D682C44A36040F264
:1008C0002804C2F20004836824681A1982421DD0E9
:1008D0005388DBB940F23003C2F200031B68834245
:1008E00004D140F23003C2F200031A60436853603F
:1008F00040F22803C2F200031B68D31A40F2280515
:10090000C2F2000544682D682C44A36030BD00008D
:100910001CB514200A214FF480730022CDE9001089
:1009200040F65301C0F6000141F68410C0F6000005
:1009300000F050FD0446204600F039FE1CBD10B505
:1009400041F6A014C0F6000402E020688047241D90
:1009500041F6A410C0F600008442F6D310BD10B5D5
:1009600041F6A414C0F6000402E020688047241D6C
:1009700041F6A810C0F600008442F6D310BD10B5B1
:10098000FFF7D2FB044640F28400C2F20000008868
:10099000401C00B240F28401C2F2000108802046EF
:1009A000FFF7C6FB10BD10B5FFF7BEFB044640F2D3
:1009B0008400C2F200000088401E00B240F28401B0
:1009C000C2F2000108800846B0F9000000280DDCE2
:1009D000002008802046FFF7ABFB40F28800C2F2FF
:1009E0000000006828B100F0F3FA02E02046FFF7AB
:1009F0009FFB10BD70B5054605B970BD40F22800DB
:100A0000C2F200000068854206D340F22C00C2F218
:100A100000000068854200D3EFE7A5F10C044FF019
:100A2000FF3140F21C20C2F2000000F0B4FB0020B5
:100A300060804FF4F550208040F23000C2F2000098
:100A40000068844204D240F23000C2F20000046028
:100A500040F22801C2F2000160680968611A401A78
:100A600040F23801C2F200010968081A40F2380168
:100A7000C2F2000108602046FFF7F2FE40F21C209F
:100A8000C2F2000000F05EFB00BFB6E740F23C306F
:100A9000C2F20000704743F63C70C2F2000070479B
:100AA00070B5FFF74CFFFFF7F6FF0446FFF7EEFFC8
:100AB0000546214600F0C4FB70BD70B50446261DF6
:100AC00040F21C00C2F20000006850B1204640F223
:100AD0001C01C2F2000109688847054605B970BDCE
:100AE00000BF00BFFEE7F0B504460D461646301DB8
:100AF00020F0070040380146002206E04BF6EF6781
:100B0000CDF6AD6741F82270521C102AF6D30D6263
:100B10004FF0000CC1F824C0C1F828C0C1F82CC0A7
:100B2000C1F830C04B638C634FF0807CC1F83CC08F
:100B3000F0BD70B504462068A0F11405284600F009
:100B400012FD002070BD2DE9F04105460C4690468F
:100B5000204600F042FDB8F1000F03D0B8F1010FBC
:100B600023D105E004F11401284600F049F81DE006
:100B70002E680FE0A6F1140794F8350097F83510A9
:100B8000884206DA04F1140107F1140000F038F885
:100B900002E03668AE42EDD100BFAE4204D104F1AE
:100BA0001401284600F02CF800E000BF00BF002030
:100BB000BDE8F08110B5044604F1140000F002F81D
:100BC000002010BD406000607047406000607047CA
:100BD0004060006070470268516002680A6001600E
:100BE000486070470268516002680A6001604860AE
:100BF00070470268516002680A600160486070478F
:100C00004268116042684A6041600860704701466E
:100C10000868884201D1012070470020FCE7D0E934
:100C200000215160D0E900121160406000607047FF
:100C3000D0E900215160D0E90012116040600060ED
:100C40007047D0E900215160D0E900121160406086
:100C5000006070472DE9F041054615B90020BDE858
:100C6000F081E81C20F0030540F23400C2F20000DD
:100C70000068854201D90020F1E70C2D00D20C2537
:100C80004FF0FF3140F21C20C2F2000000F083FA66
:100C900040F23000C2F20000006840F22801C2F2C7
:100CA00000010968461AC7E040F22800C2F20000BD
:100CB00000688419608800287ED106F10C00616804
:100CC000081AA84278D306F10C006168091A05F1E8
:100CD0001800814248D306F10C0000EB050840F2F1
:100CE0002800C2F20000006800EB08074FF4F5503E
:100CF00038800020788060687860BE60C4F8048026
:100D00000120608040F23400C2F20000796800687F
:100D10000C30814208D040F22801C2F2000178680C
:100D200009680844C0F8088040F23800C2F20000A8
:100D3000016805F10C00084440F23801C2F20001DC
:100D4000086040F23C00C2F2000000680968884276
:100D500031D240F23800C2F20000006840F23C019B
:100D6000C2F20001086026E00120608040F2280104
:100D7000C2F2000160680968611A401A40F2380145
:100D8000C2F200010968084440F23801C2F20001D1
:100D9000086040F23C00C2F2000000680968884226
:100DA00009D240F23800C2F20000006840F23C0173
:100DB000C2F20001086000E037E04FF4F5502080F7
:100DC00040F23000C2F200000068844224D110E0FA
:100DD00040F23000C2F200000068406840F2280192
:100DE000C2F200010968084440F23001C2F2000179
:100DF000086040F23000C2F200000068408858B13C
:100E000040F23000C2F20000006840F22C01C2F251
:100E1000000109688842DBD140F21C20C2F20000C8
:100E200000F090F904F10C0019E740F22800C2F23A
:100E3000000000683044466840F23400C2F200000E
:100E40000068401BB0423FF62FAF40F21C20C2F2B8
:100E5000000000F077F9002001E7F0B50C460546E8
:100E6000E6B2042A15D300F0030797B9014646EA13
:100E7000062343EA034304E008C108C108C108C1CE
:100E8000103A102AF8D201E008C1121F042AFBD23E
:100E90000D4601E005F8016B171EA2F10102F9D120
:100EA000F0BD2DE9F04106460F46304600F044F80B
:100EB0000546E868FFF7CEFE044614B90020BDE8F9
:100EC000F08100212046EA68FFF7C7FF2672002064
:100ED000607208223946204600F098F9FFF724F99D
:100EE000804604F10C01281DFFF775FE4046FFF710
:100EF0001FF92046E3E770B5044600202072FFF793
:100F000013F9054604F10C00FFF789FE2846FFF7A8
:100F10000FF92046FFF76EFD70BD70B50446002046
:100F20002072FFF701F9054604F10C00FFF777FE88
:100F30002846FFF7FDF870BD0246002110E040F2A0
:100F40004000C2F2000000EB01100078904206D190
:100F500040F24000C2F2000000EB01107047491C53
:100F60000429ECDB0020F9E72DE9F04704460D46A3
:100F7000904600262846FFF7DFFF0746FFF7FFFCF5
:100F80007E6802E0A6F10C003668381D8642F9D171
:100F9000FFF709FD45F080002072082241462046F7
:100FA00000F034F9FFF7C0F8814604F10C01381D58
:100FB000FFF711FE4846FFF7BBF8BDE8F087014692
:100FC000087A00F0800008B1012070470020FCE79B
:100FD0002DE9F041FFF7A8F8074640F28400C2F27D
:100FE0000000008890BB40F28000C2F20000006860
:100FF000FFF74CFA461E40F23C20C2F2000050F8C7
:101000003600A0F1140440F28800C2F2000000682B
:10101000844222D040F28C01C2F200010E7040F2F4
:101020008800C2F200000568046040F22400C2F2A9
:101030000000007858B904F11C0105F11C00FFF70D
:101040007AF83846FFF774F8BDE8F08106E004F15D
:101050001C0105F11C00FFF76EF800BF3846FFF7D2
:1010600067F800BFF0E770B50446FFF75DF8054686
:1010700014F8340F20F00F0040F001002070627867
:10108000343C40F23C23C2F2000303EBC20004F103
:1010900014014268116042684A604160086000BF04
:1010A00040F28001C2F20001A06B0968084340F2DF
:1010B0008001C2F2000108602846FFF739F870BDD0
:1010C00070B50446FFF730F8054604F11400D0E986
:1010D00000215160D0E9001211604060006000BF43
:1010E00094F8351040F23C22C2F2000202EBC1003B
:1010F0000168814201D1012100E0002159B140F293
:101100008000C2F20000A16B0068884340F28001B9
:10111000C2F2000108602846FFF70AF870BD2DE909
:10112000F04104460D4616461F462A460221204637
:10113000FFF71AFF2046FFF73DFDA68367720020E8
:10114000BDE8F08170B504460025FEF7EDFF0646C8
:1011500004F11400FFF75BFD28B904F11400FFF758
:10116000E8FC01250EE0A08B4FF6FF71884203DA00
:10117000A08B401CA08305E03046FEF7D9FF6FF03E
:10118000020070BD3046FEF7D3FF012D01D1FFF7FD
:101190001FFF0020F5E773B50546FEF7C5FF0646BD
:1011A000A88B002806DDA88B401EA8833046FEF7DA
:1011B000BFFF28E0019828B93046FEF7B9FF6FF06D
:1011C00001007CBD00F0EDF90446002020636A7A3E
:1011D000214605F11400FFF7B6FC0198002809DD4F
:1011E00001AA002104F1440000F02FFA04F14400A8
:1011F00000F088FA3046FEF79BFFFFF7E9FE206B10
:1012000008B1206BDDE70020DBE7704770B50346CF
:10121000A2B118460C4600BF14F8016B00F8016B30
:101220003EB902E0002500F8015B551E2A1EF9D1E7
:1012300002E0551E2A1EEFD100BF00BF184670BD48
:101240002DE9F04107468846F81C20F0030528F0F8
:101250000306182E0BD9A6F11800A84207D3701B5D
:10126000183840F23401C2F20001086001E0BDE824
:10127000F08140F22800C2F20000056004684FF4DB
:10128000F550208040F23400C2F2000000680C30BB
:1012900060600020A060608040F22801C2F200017E
:1012A00060680968084440F22C01C2F2000108603D
:1012B0004FF4F55009680880012040F22C01C2F279
:1012C00000010968488040F23400C2F20000006862
:1012D0000C3040F22C01C2F200010968486040F273
:1012E0003400C2F2000000680C3040F22C01C2F25F
:1012F0000001096888600023012241F69411C0F6BC
:10130000000140F21C20C2F20000FFF708FF40F28B
:101310002800C2F20000006840F23001C2F2000171
:10132000086000BFA3E710B5002040F28401C2F2BC
:1013300000010880002408E040F23C21C2F20001D4
:1013400001EBC400FFF741FC641C202CF4DB1F20E0
:1013500040F28C01C2F200010870002040F28801C6
:10136000C2F20001086040F28001C2F20001086090
:1013700040F29000C2F20000FFF727FC10BD70B5EC
:1013800040F28000C2F200000068FFF77FF8451EBF
:1013900040F23C20C2F2000050F83500A0F11404E5
:1013A00040F28800C2F20000046004F11C00FEF765
:1013B000F0FE70BD10B5002408E040F29801C2F2C2
:1013C000000101EBC400FFF703FC641C002CF4D007
:1013D00010BD70472DE9FF5F06460F4690461D463B
:1013E000DDE90EAB31460120FFF75BFD8146B9F127
:1013F000000F03D1002004B0BDE8F09F2846FFF79E
:1014000029FC044624B94846FFF775FD0020F2E7A1
:1014100043463A46314648468DE8300CFFF774F8AB
:101420004846E8E770B540F28800C2F20000046860
:10143000FEF77AFE05462046FFF7D9F82046FFF76B
:101440003FFE042084F8340004F1440000F02FF93A
:101450002046FFF7B4FD012803D12046FFF75DFDCC
:1014600007E004F1140140F29000C2F20000FFF71F
:10147000B9FBFFF7ADFD2846FEF75AFE70BD01E04F
:1014800000F001F8FCE770B52EE0FEF74DFE0546D2
:1014900000BF40F29000C2F200000168814201D01A
:1014A000012100E0002119B92846FEF741FE1CE0A9
:1014B00040F29000C2F200000068A0F1140404F1B0
:1014C0001400D0E900215160D0E9001211604060A1
:1014D000006000BFA06AFFF78DFA2046FFF70BFD02
:1014E0002846FEF725FE00BFCFE700BF70BD1FB541
:1014F00020201F21C20040F21C13C2F20003CDE9DC
:101500000032CDE90210002341F27F42C0F6000212
:1015100041F68C11C0F6000140F2A400C2F20000B6
:1015200000F007F840F2A400C2F2000000F03FF81B
:101530001FBD2DE9FF5F05460C4616461F46DDE937
:1015400010ABDDE90E89224601212846FFF70CFD8C
:101550003B463246214628468DE8000FFEF7D4FF71
:1015600004B0BDE8F09F70B5044694F8340000F074
:101570000F00022802D04FF0FF3070BDFEF7D4FDFF
:10158000054604F11400FFF753FB04F1440000F09A
:1015900033F92846FEF7CCFD2046FFF764FD002016
:1015A000EBE740F28800C2F200000068704710B517
:1015B00004463434A078607061780120884060600F
:1015C000022004F834092046FFF7CDFFFFF7E9FFBA
:1015D00008B1FFF7FDFC002010BD70B5044694F87B
:1015E000340000F00F00012802D04FF0FF3070BD32
:1015F000FEF79AFD05462046FFF762FD94F8340099
:1016000020F00F0040F0020084F8340004F14400A0
:1016100000F0F2F82846FEF78BFD0020E7E770B5F2
:10162000044625466FF00100286305F11400FFF71A
:10163000FFFA2846FFF717FDFFF7CAFC70BD40F21E
:101640002000C2F20000006870472DE9F041044616
:101650000E461546FEF768FD0746052E1FD241F6D9
:10166000CC10C0F60000D0E806F0606A286017E0F1
:101670002868606214E0607A20F0020060720FE077
:10168000607A40F0020060720AE0607A00F00100C7
:1016900010B10120286001E00020286000E000BFB8
:1016A00000BF3846FEF744FD0020BDE8F08170B56C
:1016B0000446FEF739FD05462046FEF78AFF607AAC
:1016C00020F0010060722846FEF732FD2046FFF749
:1016D00024FC002070BD2DE9F84307460C46154652
:1016E0001E46DDE9088922460A213846FFF73CFC00
:1016F0004346324629463846CDF80090FEF748FF6B
:10170000BDE8F8832DE9F8430546FEF70DFD804658
:101710002846FEF75EFF687A20F001006872FFF746
:101720008EFF696A0844A86240F29807C2F2000777
:10173000009700242AE019E05DF8242011681422A3
:1017400002EBC402881A826AAB6AD21A00D108E09E
:10175000826AAB6AD21A6FF000439A4200D20CE060
:1017600000BF5DF8240000684DF824005DF82400F7
:1017700007EBC40149688842DED100BF2CB15DF897
:1017800024000830611C4DF82100641C002CD2D0CC
:1017900040F2A000C2F200000068401C40F2A0012C
:1017A000C2F2000108600846066805F114010098BD
:1017B000FFF71FFA022412E006F0030060B9C4F13B
:1017C000010305F1140202EBC301C4F101025DF84B
:1017D0002200FFF70EFA00E003E0B608641C012CBB
:1017E000EAD900BF687A40F0010068724046FEF70F
:1017F0009FFC0020BDE8F88370B50446607A00F0D5
:10180000010010B94FF0FF3070BDFEF78DFC0546AA
:101810002046FEF7DEFE607A20F001006072284666
:10182000FEF786FC0020EFE700207047002070479D
:10183000002070470020704710B5FEF775FCFFF7D9
:101840002FF9FFF7E2FCFFF7B5FDFFF76CFDFFF79F
:101850005FF8FFF7BEFDFFF74AFEFFF790FD00209F
:1018600010BD0000010002000100030001000200A1
:101870000100040001000200010003000100020059
:101880000100050001000200010003000100020048
:101890000100040001000200010003000100020039
:1018A0000100060001000200010003000100020027
:1018B0000100040001000200010003000100020019
:1018C0000100050001000200010003000100020008
:1018D00001000400010002000100030001000200F9
:1018E00001000700010002000100030001000200E6
:1018F00001000400010002000100030001000200D9
:1019000001000500010002000100030001000200C7
:1019100001000400010002000100030001000200B8
:1019200001000600010002000100030001000200A6
:101930000100040001000200010003000100020098
:101940000100050001000200010003000100020087
:101950000100040001000200010003000100020078
:1019600001003031323334353637383961626364DF
:1019700065660030313233343536373839414243C9
:10198000444546006D61696E000000007469646C36
:1019900065000000686561700000000035180008EF
:1019A0002D1800082918000831180008D41900085B
:1019B00000000020A4000000EA040008781A0008D3
:1019C000A40000209C420000FA0400080300060B5B
:1019D0001000000000080140000C01400010014010
:1019E00000140140000000000000000000000000A2
:1019F00000000000000000000000000000000000E7
:101A000000000000000000000000000000000000D6
:101A100000000000010000004400002044000020FD
:101A20007800000002000000540000205400002054
:101A30002000000005000000640000206400002079
:101A4000300000000A000000740000207400002034
:101A50002C0000000000000000000000000000005A
:101A60000000000000000000000000000000000076
:081A700000000000000000006E
:04000005080000ED02
:00000001FF
